:020000040800F2
:10000000B03E002099010008EB360008E92A0008FC
:10001000DD360008650D0008A9400008000000005A
:1000200000000000000000000000000001010008C6
:10003000B10D00080000000045010008993B0008D0
:10004000B3010008B3010008B3010008B3010008C0
:10005000B3010008B3010008B3010008B3010008B0
:10006000B3010008B3010008B3010008B3010008A0
:10007000B3010008B3010008B3010008B301000890
:10008000B3010008B3010008B3010008B301000880
:10009000B3010008B3010008B3010008B301000870
:1000A000B3010008B3010008B3010008B301000860
:1000B000B3010008B30100083D3C0008B30100088B
:1000C000B3010008B3010008B3010008B301000840
:1000D000B301000859400008B3010008B30100084B
:1000E000B30D0008B3010008B3010008DFF80CD01D
:1000F00000F03AFC00480047FD4D0008B03E0020EB
:10010000224B19680868B0E8F00F80F30988BFF344
:100110006F8F4FF0000080F311884EF00D0E704786
:100120000000000006480068006880F3088862B696
:1001300061B6BFF34F8FBFF36F8F00DF00BF00BF0B
:1001400008ED00E0EFF30980BFF36F8F0F4B1A68E3
:1001500020E9F00F106008B54FF0500080F31188CF
:10016000BFF34F8FBFF36F8F05F04EFF4FF00000CE
:1001700080F31188BDE8084019680868B0E8F00FFE
:1001800080F30988BFF36F8F704700BF1C00002009
:10019000EFF3058070470000064880470648004797
:1001A000FEE7FEE7FEE7FEE7FEE7FEE7FEE7FEE727
:1001B000FEE7FEE73B3C0008ED0000082DE9F05F9C
:1001C0000546002092469B468846064681464024C6
:1001D0001BE0284641464746224600F020F8534699
:1001E0005A46C01A914110D311461846224600F0D3
:1001F00097FA2D1A67EB01084F462246012000218D
:1002000000F08EFA17EB00094E41201EA4F1010404
:10021000DFDC484631462A464346BDE8F09F202AA7
:1002200004DB203A21FA02F00021704721FA02F3A0
:10023000D040C2F1200291400843194670470000A7
:100240000649074A0868504343F2390210440860DF
:1002500040087047014908607047000028010020ED
:100260006D4EC64140EA01039B0703D009E008C96F
:10027000121F08C0042AFAD203E011F8013B00F86B
:10028000013B521EF9D27047D2B201E000F8012BB7
:10029000491EFBD270470022F6E710B513460A4606
:1002A00004461946FFF7F0FF204610BD421C10F827
:1002B000011B0029FBD1801A7047034611F8012B5E
:1002C00000F8012B002AF9D118467047F0B480EAF3
:1002D0000102D40F4200B2EB410F02D2024608469F
:1002E00011464A0042D0C30DDDB2C1F3C752AD1A68
:1002F000202D35DAC1F3160141F4000204B1524257
:10030000C5F1200602FA06F12A411044B3EBD05F92
:1003100023D0C4B1012DA0EBC35009DCF0BC4FF0D9
:10032000004202EAC352DBB200F5000000F022BA3C
:10033000400000F1807000EBC350A0F1807040EAF3
:10034000D170490009E0490841EAC071A0EBC350EF
:1003500000F50000400800EBC350F0BC00F001BA0B
:100360006142012202EB4101001BF6E7F0BC70473D
:1003700081F00041AAE780F00040A7E7420005D0E5
:10038000C0F3C7525242914201DC0020704700EB9B
:10039000C15070472DE9FE4F804681EA0300C00F2F
:1003A0000C46009021F0004123F00045B8EB02001C
:1003B000A94105D24046214690461C460B460246BE
:1003C00023F00040104347D0270DC7F30A00C3F3C2
:1003D0000A510290401A019040286BDAC3F31300CF
:1003E00040F4801B0098924620B10023D2EB030A10
:1003F00063EB0B0B01985946C0F14002504600F0E8
:100400008FF906460D4650465946019A00F097F975
:1004100010EB08006141002487EA115284EAE77377
:100420001A4340D0009A62B3019A012A4FEA075258
:1004300015DC001B61EB02014FF0004202EA07529B
:10044000CDE90042001C41F5801132462B4600F0F8
:10045000CEF903B0BDE8F08F40462146F9E7001B16
:1004600061EB0201001C41F5801300185B4120186C
:10047000A2F5001747EB030140EAD570B6196D41AC
:1004800011E06D084FEA360645EAC0754FEA07529B
:10049000001B61EB0201001C41F5801149084FEA85
:1004A00030000019514132462B4603B0BDE8F04FF1
:1004B00000F08EB90098012240000023D0EB020228
:1004C00063EBE073009821464FEAE074B8EB00005C
:1004D00061EB0401E9E783F000435BE781F0004151
:1004E00058E72DE9FE4F81EA030404F0004421F0AF
:1004F000004100944FF0000B23F0004350EA010448
:100500005ED052EA03045BD0C3F30A54C1F30A5528
:100510002C44A4F2F3340194A0FB0254C1F3130160
:1005200041F48011C3F3130343F4801301FB02442D
:1005300000FB034E840A970A44EA815447EA835732
:10054000A4FB076802958D0A05FB07854FEA932CEB
:1005500004FB0C542705029D4FEA065847EA16375C
:10056000B5EB08056EEB070C870E920E47EA811774
:1005700042EA8312A7FB0201B6EB0B0164EB000415
:100580002B0D43EA0C335E1844EB1C50DA465146FF
:10059000E7FB0201C5F313044FEA0B3343EA14539C
:1005A0004FEA0432019C43EA0603A4F10C040294CE
:1005B000009CCDE900B400F01AF903B0BDE8F08F5B
:1005C00000200146F9E770B521F0004303430CD049
:1005D000C1F30A550024D5EB040564EB0403D617D8
:1005E000AD1AB34102DB0020014670BD201841EB7B
:1005F000025170BDC10F80EAE0700844CA0796231B
:10060000002100F0B7B896230022114600F0B2B8DE
:100610000EB5C10F80EAE0700844CA07002140F21D
:1006200033438DE80E000A460B4600F0E0F803B0B5
:1006300000BD20F00040C10DC0F3160040F40000E2
:100640007F2901DA00207047962903DCC1F1960169
:10065000C840704796398840704770B5C1F30A5258
:1006600001F000450024C1F3130140F2FF3341F4CF
:1006700080119A4201DA002070BD40F233439A4261
:10068000A2F2334203DC5242FFF7C9FD00E0904082
:100690002C43F1D0404270BDC1F30A5210B5C1F3F2
:1006A000130140F2FF3341F480119A4201DA002035
:1006B00010BD40F233439A42A2F2334203DC52426D
:1006C000FFF7ADFD10BD904010BD0000002801DB1C
:1006D000C0F10040002901DBC1F1004181427047B7
:1006E000002801DBC0F10040002901DBC1F100411D
:1006F0008842704730B50B46014600202022012475
:1007000009E021FA02F59D4205D303FA02F5491BDF
:1007100004FA02F52844151EA2F10102F1DC30BDF5
:10072000202A04DB203A00FA02F1002070479140B1
:10073000C2F1200320FA03F3194390407047202AA6
:1007400006DBCB17203A41FA02F043EAE07306E0F9
:1007500041FA02F3D040C2F1200291400843194609
:1007600070470029A8BF7047401C490008BF20F00F
:100770000100704710B4B0FA80FC00FA0CF050EAA7
:10078000010404BF10BC704749B1CCF1200421FA28
:1007900004F411FA0CF118BF012121430843A3EB23
:1007A0000C01CB1D4FEA00614FEA102042BF002030
:1007B00010BC704700EBC35010440029A4BF10BC0C
:1007C0007047401C490008BF20F0010010BC704772
:1007D00010B5141E73F1000408DA401C41F1000149
:1007E00092185B411A4301D120F0010010BD2DE9A0
:1007F000F04D92469B4611B1B1FA81F202E0B0FA97
:1008000080F220329046FFF78BFF04460F4640EA05
:100810000A0041EA0B0153465A46084313D01146D9
:1008200053EA010019D0C8F140025046FFF7F7FC27
:1008300005460E46504659464246FFF771FF0843AB
:1008400005D0012004E020463946BDE8F08D0020A7
:10085000054346EAE0762C4337430A986305E40AE9
:10086000A0EB08000022FD0A44EA47540A3002D5F2
:1008700000200146E9E7010510196941DDE9084555
:1008800000196941BDE8F04DA2E72DE9F04D81EA7C
:10089000030404F0004B21F0004514464FF0000A19
:1008A00023F0004150EA050220D054EA01021DD095
:1008B000C5F30A570246C5F31303C1F31300C1F38E
:1008C0000A5640F4801543F48013A7EB0608101B6A
:1008D000D64608F2FD3873EB050002D308F1010893
:1008E00001E092185B41B8F1000F03DA00200146E5
:1008F000BDE8F08D00204FF48011064684460EE0DE
:10090000171B73EB050705D3121B63EB05030643A7
:100910004CEA010C49084FEA300092185B4150EA5A
:100920000107EDD152EA030012D082EA040083EA03
:100930000501084305D0101BAB4106D2012200235C
:1009400006E000224FF0004302E06FF00102531076
:100950001AEB06004CEB085110EB0A0041EB0B01BF
:10096000BDE8F04DFFF734BF064C074D06E0E068E8
:1009700040F0010394E8070098471034AC42F6D3E6
:10098000FFF7B8FB347F0008547F00082DE9F04DD5
:1009900000231A461B1A8A4103DB00200146BDE8EA
:1009A000F08DC1F30A52C1F3130141F480154FF0E9
:1009B000000BD10702D100186D41521E00270446DA
:1009C00040F2FF11384601EB620A3E46804602467D
:1009D00000204FF48011FFF722FCC2197141BB18AF
:1009E00046EB0100B4EB030C75EB000C04D3E41AE6
:1009F00065EB000517460E46241908F101006D410C
:100A000080463428E3DDF91946EB0600091BA841AE
:100A100003D24FF0FF32134601E0002213461BEBD6
:100A2000070046EB0A51BDE8F04DFFF7D1BE70B5A7
:100A30008C1810F8015B15F0070301D110F8013B89
:100A40002A1106D110F8012B03E010F8016B01F810
:100A5000016B5B1EF9D12B0705D40023521E0DD468
:100A600001F8013BFAE710F8013BCB1A921C03E0B6
:100A700013F8015B01F8015B521EF9D5A142D8D3EE
:100A8000002070BD2DE9F847DFF8F09000224846BD
:100A9000DFF8ECC0D0E90261D9E900400B46341B15
:100AA00061EB0001501EB4EB0C0C1546174671F1BA
:100AB000000C5ED3DFF8CC804FF0000CB8EB0404E0
:100AC0007CEB010C55D34C46D4E904C1BCEB0606C3
:100AD00061EB03012C4BF31A71F1000349D3DFF8EA
:100AE000ACC00023BCEB06068B4142D300234FF081
:100AF0000309EA4609EB430C0CF1010104EBC101C7
:100B000004EBCC0CD1E90061DCE9008CB6EB080603
:100B100061EB0C015206DFF87880120E6D1C4FF06D
:100B2000000CB8EB06067CEB010C01D242F001028E
:100B3000082D04D10AF80720002215467F1C5B1CF3
:100B4000202BD7DB9DF80110C943CAB28DF80120D4
:100B50009DF80310C943C9B28DF803109DF8003009
:100B6000934203D19DF802208A4204D0094A002111
:100B70001160BDE8F8870020FBE700008036002008
:100B800000127A0080969800E0673500C03B47036A
:100B900040420F00C00000202DE9FC4104F03CFF62
:100BA000264C274FD4E90623861A61EB0302002363
:100BB0001D46BE1B934100D22560C4E90601214AAF
:100BC000236802EBC3065B1CC6E900012360042B0B
:100BD00006D0442B02D1FFF755FF2560BDE8FC810C
:100BE000D2E90260D2E900370146F31A60EB070050
:100BF000154FDF1B70F10007F0D3DFF850C000275E
:100C0000BCEB03038741E9D3D2E90402801B62EB0A
:100C100001020F49411A72F10001DFD34FEAAC0320
:100C20000021181A9141D9D30095002301951A4645
:100C30006946206905F0E8FBCFE70000C00000200E
:100C400000E1F5058036002000127A0080969800B9
:100C500080841E0010B5002208210A2005F083FAC6
:100C60000849002208610521252000F02FFE2520DB
:100C700000F01EFE04480068C16841F02001C16018
:100C800010BD0000C0000020640200207CB50446B6
:100C9000AA200D4ACDE90004151F002369462869E2
:100CA00005F0B2FB686838B108494FF08050086021
:100CB000BFF34F8FBFF36F8FAA2002F0CBFE204609
:100CC00002F0C8FE7CBD0000C400002004ED00E07E
:100CD0002DE9F05FDFF87490002409F5D16A40F245
:100CE000CB684FF4517B00BF1AF9040039F8147037
:100CF000002802DD98FBF0F00AE0414298FBF1F099
:100D0000FFF786FC0022124BFFF7EBFBFFF7A5FC79
:100D1000FFF77EFC0E4605460E4A0F4BFFF7E1FB40
:100D2000FFF7BAFC0146384600F01EF82846314667
:100D30000A4A0B4BFFF7D5FBFFF7AEFC04F0DCFFD4
:100D4000641C5C45D0D3BDE8F09F0000B06A000889
:100D50000000F83FCDCCCCCCCCCCEC3F9A99999903
:100D60009999B93FFEE7000010B50C46B8B10E499D
:100D70000E4BB1FBF0F21868521EC262DA601968BD
:100D8000500848630021184601F070FC204604F02A
:100D9000B3FFBDE810400021044801F0B5BCBDE838
:100DA0001040084604F0A8BF40420F008C0100200C
:100DB000704710B54FF4806000F094F84FF4006075
:100DC00000F090F8BDE810404FF4805000F08AB871
:100DD00072B6FEE70148006970470000C0000020BD
:100DE00001484068704700009C00002010B590F852
:100DF00021100022022905D00421816380F82020DF
:100E0000012010BD01680B6823F00E030B60016820
:100E10000B6823F001030B6090F84030C46B012194
:100E200001FA03F3636080F8211080F82020104657
:100E300010BD000010B590F821100024022903D045
:100E40000421816301243DE001680A6822F00E025A
:100E50000A6001680A6822F001020A601A4A016801
:100E6000914201D1012121E0174A1432914201D16E
:100E700010211BE0144A2832914201D1891515E056
:100E8000114A3C32914201D189140FE00E4A50328E
:100E9000914202D14FF4803108E00B4A6432914212
:100EA00002D14FF4801101E04FF08071064A083AF8
:100EB0005160012180F82110002180F82010416B41
:100EC00001B18847204610BD08000240B0F5806F90
:100ED00004D0B0F5805F03D102F0D2BDFFF75CBE55
:100EE00070470000044910B50A68024202D0086049
:100EF000FFF7ECFF10BD0000140401402DE9F84F8E
:100F0000DFF8B8910024A9F1040B23460F2709F15B
:100F1000040AABF1040EC9E00125A5402A40AA420B
:100F20007DD1674ED1F804C0ACEB0608B44532D091
:100F300014DCBCF1030F3AD009DCBCF1000F2AD05D
:100F4000BCF1010F1CD0BCF1020F31D11DE0BCF18E
:100F5000110F17D0BCF1120F2AD119E0B8F5881F74
:100F600019D006DCB8F5803F15D0B8F5801F1FD129
:100F700011E0B8F5001F0ED0B8F5041F18D10AE033
:100F8000CB6815E0CB681B1D12E0CB6808330FE07F
:100F9000CB680C330CE08B682BB1012B4FF00803AE
:100FA00003D0456104E0042302E0056100E0002372
:100FB000FF2A01D8064601E000F104064FEA840545
:100FC00001D9A5F12005D6F8008007FA05FC28EA2A
:100FD0000C0803FA05F548EA0508C6F800804D68D4
:100FE000ED0062D5374DAE6946F00106AE61AD69E0
:100FF00024F0030605F001050095334D06EB050CC2
:10100000DCF80850A607360F07FA06F825EA0805A7
:10101000DFF8B880404503D14FF0000817E044E006
:10102000DFF8AC80404502D14FF001080FE0DFF857
:10103000A480404502D14FF0020808E0DFF8988014
:10104000404502D14FF0030801E04FF0040808FAD0
:1010500006F848EA0508CCF808804D68D9F8006021
:10106000ED024D4601D5164300E096432E604D68D3
:10107000DAF80060AD02554601D5164300E096430C
:101080002E604D68DBF80060AD035D4601D5164368
:1010900000E096432E604D68DEF80060ED03754673
:1010A00001D5164300E096432E60641C0D682A4665
:1010B000E5407FF431AFBDE8F88F0000080401403F
:1010C0000000111000100240000001400008014023
:1010D000000C0140001001400014014080680840ED
:1010E00000D001207047C26821EA02030A4043EAA7
:1010F0000241016170470AB1016170470904FBE7D1
:1011000001488068704700000C00002070B50400A2
:1011100025D094F83D00002520B984F83C502046A5
:1011200000F00EFB242084F83D002068016821F0C7
:10113000010101602068016841F4004101602068FC
:10114000016821F40041016000F0A0FD4D4A616892
:10115000914201D84C4900E04C49884201D201201B
:1011600070BD4B492368B0FBF1F15E6826F03F0685
:101170000E435E606368934206D94FF496735943F9
:101180004FF47A73B1FBF3F12368491C1E6A26F011
:101190003F06314319626168914210D84900401EF0
:1011A000B0FBF1F2521CC2F30B02042A01D204205C
:1011B00022E0B0FBF1F0401CC0F30B001CE0A26881
:1011C000F2B301EBC10303EB0116431EB3FBF6F3CD
:1011D0005B1C43F480431B0549D092B301EBC10271
:1011E00002EB0111401EB0FBF1F0401CC0F30B00FC
:1011F00040F4804040F400402168CA694CF6FF7317
:101200009A431043C861D4E907100143206802687B
:1012100022F0C00211430160D4E9030101432068B8
:10122000826848F2FF339A4311438160D4E9050193
:1012300008432168CA6822F0FF021043C86001E039
:101240000EE016E02068016841F0010101602564AC
:10125000202084F83D00256384F83E50002070BDB6
:1012600001EB4106431EB3FBF6F35B1CB3E7012021
:10127000C2E701EB4101401EB0FBF1F0401CC0F39E
:101280000B00B7E7A086010080841E0000093D0026
:1012900040420F002DE9F84F1F4690468A4604460B
:1012A000DDF82890FFF72CFF054694F83D00202834
:1012B0007FD11923012240492046009501F078FD95
:1012C000002876D194F83C00012872D0012084F8DF
:1012D0003C0020680168C90703D1016841F00101A1
:1012E00001602068016821F400610160212084F818
:1012F0003D00102084F83E0000262664C4F82480B7
:101300006785608D20852D48E0622B464A46514610
:10131000204601F001FC90B9206841698069009085
:1013200036E02A464946204601F020FE50B1206CA6
:10133000042804D12068016841F400710160012093
:10134000BDE8F88F606A216800780861606A401C17
:101350006062618D491E6185218D491E89B221859A
:1013600022685369DB435B070BD451B100781061ED
:10137000606A401C6062608D401E6085208D401E4A
:1013800020852A464946204601F0E6FC0028CED1B9
:10139000208D0028C5D154F83D0B016841F400713F
:1013A0000160202004F81E09E67766770020C7E771
:1013B000FFE70220C4E70000020010000000FFFF6A
:1013C0002DE9FF4F83B00025DDE910799A46934659
:1013D0000446DDF848800095FFF792FE064694F833
:1013E0003D0020287CD11923012285492046009602
:1013F00001F0DEFC0028F5D194F83C0001286FD004
:10140000012084F83C0020680168C90703D1016805
:1014100041F0010101602068016821F40061016070
:10142000222084F83D00402084F83E002564676255
:10143000A4F82A90608D20857248E062CDE900868C
:1014400053465A462046049901F0B4FB00287DD14A
:10145000208DDFF8B491202768B1012814D002282C
:10146000206801681ED041F48061016020684169F4
:1014700080690090B6E02068416981690091016847
:1014800041F400710160ADE02068016821F48061E1
:10149000016072B62068416981690091016841F478
:1014A00000710AE041F40061016072B62068416990
:1014B00081690091016821F48061016062B691E068
:1014C000032868D801280CD0022843464FF00002B8
:1014D0004946204600960FD001F06AFCB0BB10E0F0
:1014E0008BE032464146204601F008FD70BB206883
:1014F0000069616A08706CE001F05AFC30BB72B69A
:1015000034E02068016821F48061016072B62068CF
:101510000069616A0870606A401C6062208D401E2C
:101520002085608D401E6085384846F2A81100680D
:10153000B0FBF1F0C0EBC00000EB80000090401E5B
:10154000009008D020684069C04300E029E04007CF
:101550000CD50098F3E744F8305F6773A5732069F2
:1015600040F02000206162B625731AE0206801680F
:1015700041F40071016020680069616A0870606A66
:10158000401C6062218D491E2185618D491E618547
:1015900062B621681BE032464146204601F0AEFCAF
:1015A00018B1012007B0BDE8F08F20680069616ABA
:1015B0000870606A401C6062218D491E2185618D22
:1015C000491E618521684A69D24352070AD40969D4
:1015D0000170606A401C6062208D401E2085608D15
:1015E000401E6085208D00287FF46AAF84F83D702E
:1015F00084F83E5084F83C50D4E70220D2E7000043
:10160000020010000000FFFF04000100180000208D
:101610002DE9FF4F83B09A46DDE9119793460446C2
:10162000DDF84080FFF76CFD054694F83D0020286A
:101630007FD11923012240492046009501F0B8FBD3
:10164000002876D194F83C00012872D0012084F85B
:101650003C0020680168C90703D1016841F001011D
:1016600001602068016821F400610160212084F894
:101670003D00402084F83E0000262664C4F8248003
:10168000A4F82A90608D20852C48E062CDE9007591
:1016900053465A462046049901F00AFB70B930E0DF
:1016A0002A463946204601F061FC58B1206C0428D6
:1016B00004D12068016841F400710160012007B085
:1016C000BDE8F08F606A216800780861606A401C9C
:1016D0006062218D491E89B22185628D521E62850C
:1016E00022685369DB435B070BD469B10078106152
:1016F000606A401C6062208D401E2085608D401E07
:101700006085208D0028CBD12A463946204601F03D
:1017100023FB0028CAD154F83D0B016841F4007145
:101720000160202004F81E09E67766770020C6E7EE
:10173000FFE70220C3E70000020010000000FFFFE7
:1017400010B586B0002100910191029103910068CB
:101750000F4988421AD10F4CA06940F00800A061DF
:10176000A069694600F008000490C0200090122093
:101770000190032003900848FFF7C0FBE06940F4A4
:101780000010E061E06900F40010049006B010BDA4
:101790000054004000100240000C014002488168E3
:1017A00002781144816070470C000020074810B592
:1017B000016841F010010160032000F0A7F80F203C
:1017C00000F006F800F050F8002010BD00200240A4
:1017D00030B505461F4887B0C16941F00401C161B9
:1017E000C06906A900F00400009001A800F02EFADC
:1017F0000498B0B100F04AFA40001749174AB0FB0C
:10180000F1F11748491E0260416040F2E7320021C1
:10181000C0E903218160816100F06EFC040003D007
:1018200015E000F033FAE8E70D4800F0B1FC0400E1
:101830000DD11E2000F03CF8102D07D200222946C1
:101840001E2000F043F80748056000E0012407B0BF
:10185000204630BD0010024040420F00000800400A
:101860009C050020100000200F4808B5816941F058
:1018700001018161816901F001010091C16941F0BB
:101880008051C161C069002200F0805000900F219A
:10189000901E00F01BF80548416821F0E06141F01E
:1018A0000071416008BD00000010024000000140CE
:1018B000002809DB00F01F0201219140400980004F
:1018C00000F1E020C0F8001170470000F0B40E4BAA
:1018D0001B680C46C3F30223C3F10705042D00D98E
:1018E0000425191D072901D2002300E0DB1E012673
:1018F00006FA05F1491E214099409E40761E164089
:101900003143F0BC02F0E6BB0CED00E0064900F00C
:10191000070208684FF6FF03184040EA0220034A16
:1019200010430860704700000CED00E00000FA056D
:101930002DE9F04186B0040004D094F8A9020025F6
:1019400020B108E0012006B0BDE8F08184F8A8527B
:10195000204600F05BF8032084F8A902206802F01A
:101960009AFB04F11001142288466846FEF77AFCBF
:1019700094E80F0002F082FB0227D0BB0021206810
:1019800002F090FB002001260EE000BF00EB80017A
:1019900004EBC10181F8296001F8280F401CCD70CB
:1019A0000D614D61C0B28D6161688142EED8002049
:1019B00012E000BF00EB800104EBC10181F8695126
:1019C00081F8680181F86B51C1F87851C1F87C51F8
:1019D000401CC0B2C1F8805161688142EAD814222B
:1019E00041466846FEF73EFC94E80F0002F04AFBD1
:1019F00010B184F8A972A5E784F8245084F8A9628C
:101A0000206802F03DFB00209DE7000008B500685B
:101A10000649884208D10648C16941F40001C16104
:101A2000C06900F40000009008BD0000005C0040A8
:101A3000001002402DE9F84305460078354CC007F8
:101A400054D0E0690026C00008D4E06940F080501E
:101A5000E061E069012600F0805000902E480168A6
:101A6000C90512D40168804641F480710160FFF716
:101A700047FB074605E000BFFFF742FBC01B642899
:101A800023D8D8F80000C005F6D5206A10F44070BD
:101A900021D0A98801F4407181421CD0206A1F49DD
:101AA000012220F440700A6000220A602062C00710
:101AB00011D0FFF725FB074641F2883808E000BF48
:101AC000FFF71EFBC11B414502D90320BDE8F88387
:101AD000206A8007F4D5206A696820F440700843C2
:101AE00020621EB1E06920F08050E0612878800714
:101AF00005D56068A96820F44040084360602878F4
:101B0000C00605D56068E96820F48000084360607D
:101B10000020DBE700100240007000404004424219
:101B20002DE9F0470F46050061D0434E306800F0C4
:101B30000700B84209D2306820F00700384330600F
:101B4000306800F00700B84251D128683B4C81074B
:101B500012D5400703D5606840F4E06060602878E3
:101B6000000703D5606840F4605060606068A96851
:101B700020F0F000084360602878C00728D068682B
:101B8000012810D02168022810D0890700292EDAF8
:101B9000616821F0030101436160FFF7B1FA8046FB
:101BA00041F288390DE021688903EFE78901EDE70B
:101BB000FFF7A6FAA0EB0801494502D90320BDE8CA
:101BC000F0876068696800F00C00B0EB810FEFD11E
:101BD000306800F00700B8420BD9306820F00700E9
:101BE00038433060306800F00700B84201D001206F
:101BF000E5E72878400705D56068E96820F4E060EB
:101C0000084360602878000706D56068296920F4D9
:101C1000605040EAC100606000F058F86168084A0E
:101C2000C1F30311515CC8400649086006480068CA
:101C3000FFF7CEFD0020C2E7002002400010024066
:101C4000B674000818000020100000200F22026067
:101C50000C4A536803F003034360536803F0F00336
:101C60008360536803F4E063C36052684FF4E06339
:101C700003EAD20202610448006800F0070008602D
:101C8000704700000010024000200240044805494F
:101C900000684968044AC1F30221515CC84070479A
:101CA0001800002000100240C674000804480549CE
:101CB00000684968044AC1F3C221515CC8407047BA
:101CC0001800002000100240C67400080E4A516837
:101CD0000E4801F00C03042B11D0082B0FD10C4837
:101CE000C1F38343C903C05C0AD55168084AC1F3F4
:101CF0004041921E515C054A5043B0FBF1F07047E1
:101D000004494843704700000010024000127A0066
:101D1000A674000800093D002DE9F84F040070D0BA
:101D20002078C04DC00749D06868C0F38100012801
:101D300007D06868C0F38100022809D16868C00331
:101D400006D52868800339D560680028E7D035E0DB
:101D50006068B0F5803F0BD010B1B0F5A02F11D066
:101D6000286820F480302860286820F4802002E071
:101D7000286840F480302860606890B1FFF7C0F9AF
:101D800006460AE0286840F480202860F0E700BF9B
:101D9000FFF7B6F9801B642873D828688003F7D54D
:101DA0000CE0FFF7ADF9064605E000BFFFF7A8F924
:101DB000801B6428F0D828688003F7D420789A4ED6
:101DC00080074FF001094FF0000839D5686810F01E
:101DD0000C0F07D06868C0F38100022809D1686839
:101DE000C00306D42868800714D52069012808D1CB
:101DF00010E02069B0B1C6F80090FFF781F90746FE
:101E000005E00AE1FFF77CF9C01B0228C4D8286866
:101E10008007F7D52868616920F0F80040EAC10022
:101E200028600DE0C6F80080FFF76AF9074604E075
:101E3000FFF766F9C01B022823D828688007F7D46B
:101E4000207800072CD57948A169D9B1C0F8009055
:101E5000FFF756F9074604E0FFF752F9C01B0228C6
:101E60000FD8686A8007F7D571484FF4FA510068B7
:101E7000B0FBF1F0009000BF0098411E0091FAD233
:101E80000EE080E0C0F80080FFF73AF9074604E072
:101E9000FFF736F9C01B022875D8686A8007F7D4A7
:101EA0002078400760D5E8690027C00008D4E869B9
:101EB00040F08050E861E869012700F08050009010
:101EC0005C480168C90513D40168834641F48071F8
:101ED0000160FFF715F9824606E000BFFFF710F931
:101EE000A0EB0A0064284ED8DBF80000C005F5D549
:101EF000E06801280AD008B1052813D0286A20F02C
:101F000001002862286A20F0040002E0286A40F0FC
:101F100001002862E06841F2883B98B1FFF7F0F8D1
:101F200082460BE0286A40F004002862EEE700BF1A
:101F3000FFF7E6F8A0EB0A0159455AD8286A80074E
:101F4000F6D50CE0FFF7DCF8824605E0FFF7D8F89D
:101F5000A0EB0A0159454CD8286A8007F6D41FB176
:101F6000E86920F08050E861E06988B36968C1F3EE
:101F70008101022944D00228C6F8608004D0FFF70E
:101F8000BFF8044638E034E0FFF7BAF8074604E04B
:101F9000FFF7B6F8C01B02282BD828688001F7D4B9
:101FA000206AB0F5803F05D16868A16820F4003050
:101FB00008436860D4E908010843696821F4741192
:101FC00008436860C6F86090FFF79AF8044606E098
:101FD00025E000BFFFF794F8001B022809D8286805
:101FE0008001F7D51BE000BFFFF78AF8001B02282D
:101FF00002D90320BDE8F88F28688001F4D40EE0F0
:102000000128F7D06868226A00F48031914204D137
:10201000616A00F47010884201D00120EAE70020D4
:10202000E8E7000000100240000042428004424203
:1020300018000020007000407047704710B590F8FD
:102040003C20012A22D0012280F83C20CA688C68FA
:1020500022F4407222434C6822F4806222430C68CE
:1020600022F4006222430C6922F4805222434C691C
:1020700022F400522243C969002322F480420A4319
:1020800001684A6480F83C30002010BD022010BD79
:1020900070B590F83C20012A26D0012480F83C40FD
:1020A000022280F83D2003685A689D6822F070067D
:1020B0000A6832435A600D4B02689A4208D0B2F166
:1020C000804F05D00A4B9A4202D00A4B9A4204D163
:1020D000496825F080031943916080F83D40002154
:1020E00080F83C10084670BD022070BD002C0140F5
:1020F000000400400008004010B5040003D094F82C
:102100003D0010B107E0012010BD002084F83C0024
:10211000204600F01FF8022084F83D00211D2068B1
:1021200001F092FD012084F8460084F83E0084F816
:102130003F0084F8400084F8410084F8420084F8AD
:10214000430084F8440084F8450084F83D000020F2
:1021500010BD000008B50C4A01680C48914207D137
:10216000816941F400618161806900F4006009E0E7
:10217000B1F1804F07D1C16941F00101C161C0696E
:1021800000F00100009008BD002C0140001002404A
:1021900090F83D10012901D001207047022180F8FC
:1021A0003D100168CA6842F00102CA6000680B492C
:1021B000884208D0B0F1804F05D00949884202D04A
:1021C0000849884204D1816801F00701062903D03B
:1021D000016841F00101016000207047002C0140BE
:1021E000000400400008004070B5044690F83C0030
:1021F0000025012817D0012684F83C60022084F8CD
:102200003D002068826822F0770222F47F428260DB
:102210000868502838D00DDC20284FD005DC90B35A
:10222000102811D14AE0022070BD302846D0402845
:102230000AD13BE060282FD070280DD0B0F5805F28
:1022400003D0B0F5005F12D0012584F83D60002076
:1022500084F83C00284670BDCB68D1E90121206894
:1022600001F035FD2068816841F0770109E0CB6815
:10227000D1E90121206801F02AFD2068816841F43C
:1022800080418160E1E719E0CA684968206801F08F
:10229000D3FD5021206806E0CA684968206801F033
:1022A000DCFD6021206801F01CFDCEE7CA684968AA
:1022B000206801F0C1FD40212068F4E72268014652
:1022C0001046F0E7704770B50446006801694FF0AA
:1022D0000005C943890715D4C168C943890711D4CA
:1022E000E91E01610120207720688069800720466F
:1022F00002D0FFF7E7FF04E000F00EF9204600F0FF
:10230000B3F9257720680169C943490717D4C16823
:10231000C943490713D46FF00401016102202077FB
:102320002068806910F4407F204602D0FFF7CAFF82
:1023300004E000F0F1F8204600F096F925772068D7
:102340000169C943090716D4C168C943090712D4F2
:102350006FF008010161042020772068C0698007C0
:10236000204602D0FFF7AEFF04E000F0D5F820468B
:1023700000F07AF9257720680169C943C90617D4A6
:10238000C168C943C90613D46FF010010161082068
:1023900020772068C06910F4407F204602D0FFF704
:1023A00091FF04E000F0B8F8204600F05DF92577D1
:1023B00020680169C943C90708D1C168C943C90771
:1023C00004D1891E0161204600F0D6F92068016918
:1023D000C943090609D4C168C943090605D46FF089
:1023E000800101612046FFF727FE20680169C9438B
:1023F000490609D4C168C943490605D46FF04001B4
:102400000161204600F0C2F920680169C9438906CC
:102410000BD4C168C943890607D46FF0200101615C
:102420002046BDE87040FFF708BE70BD70B586B0AD
:10243000002100910191029103910068304B3149D4
:102440000224314A984211D1886940F00400886121
:102450008869039400F0040004908815CDE9000415
:1024600069461046FEF74AFD06B070BD274E284D5E
:10247000B0F1804F1BD0274A9042F5D1886940F0D7
:10248000080088618869694600F0080004901020FF
:10249000CDE9000430460394FEF730FD686820F46F
:1024A000406040F0E06040F400606860DCE788690C
:1024B00040F004008861886900F004000490886995
:1024C00040F0080088618869694600F008000490BF
:1024D00048F20400CDE9000410460394FEF70EFD17
:1024E0000820CDE90004694630460394FEF706FD56
:1024F000686820F4407040F0E06040F48070D4E7F9
:10250000002C01400010024000080140000C014076
:102510000000014000040040704770B5044690F888
:102520003C0000260D4601280FD0012084F83C0015
:102530006AB1042A1DD0082A2FD00C2A3FD00126C8
:10254000002084F83C00304670BD022070BD206839
:1025500001F0D0FB2068816941F0080181612068A9
:10256000816921F004018161206881692A69114330
:1025700011E0206801F0E6FB2068816941F4006108
:1025800081612068816921F48061816120688169AD
:102590002A6941EA02218161D2E7206801F0FEFB4D
:1025A0002068C16941F00801C1612068C16921F05A
:1025B0000401C1612068C1692A69114311E02068E2
:1025C00001F018FC2068C16941F40061C161206814
:1025D000C16921F48061C1612068C1692A6941EA49
:1025E0000221C161ACE710B5040003D094F83D00AE
:1025F00010B107E0012010BD002084F83C00204607
:1026000000F01EF8022084F83D00211D206801F032
:102610001BFB012084F8460084F83E0084F83F004C
:1026200084F8400084F8410084F8420084F84300B4
:1026300084F8440084F8450084F83D00002010BD73
:1026400008B500680649884208D10648C16941F0CA
:102650000201C161C06900F00200009008BD0000E5
:1026600000040040001002407047000010B504460E
:10267000022249B104290ED0082913D094F8410050
:10268000012816D0012010BD94F83E000128F9D190
:1026900084F83E200FE094F83F000128F2D184F83E
:1026A0003F2008E094F840000128EBD184F8402056
:1026B00001E084F841200122206801F0FBFA0F4973
:1026C0002068884203D1426C42F400424264206890
:1026D000884208D0B0F1804F05D00949884202D025
:1026E0000849884204D1816801F00701062903D016
:1026F000016841F001010160002010BD002C014083
:10270000000400400008004030B504460D46006853
:10271000002201F0CFFA174B41F2111120688A1004
:10272000984209D1036A0B4206D1036A134203D1CE
:10273000436C23F4004343642068036A0B4206D1D0
:10274000016A114203D1016821F0010101600120F9
:102750003DB1042D08D0082D09D084F84100002097
:1027600030BD84F83E00FAE784F83F00F7E784F8CC
:102770004000F4E7002C014000680349884201D181
:10278000FFF70CB870470000000800407047704722
:1027900070470000F8B5016804460868CA684B69CC
:1027A00010F00F0F4FF0000559D003F0010602F4AE
:1027B0009077374365D0C10705D0D10503D5616C4B
:1027C00041F001016164410705D5D90703D0616C6F
:1027D00041F002016164810705D5D90703D0616C1E
:1027E00041F004016164010707D502F02001314383
:1027F00003D0616C41F008016164616C00293AD03A
:10280000800604D5900602D5204601F067FB2068BB
:102810004069616CC0F38010090700D460B32046A2
:1028200001F035FB20684069400621D5206814304E
:1028300050E8001F21F0400140E80012002AF5D1C5
:10284000E06BA8B16D494163E06BFEF7F3FA002835
:1028500011D0E06B416B01B0BDE8F0400847830642
:102860000FD593060DD52046BDE8F84001F036BBE4
:102870002046FFF78DFFF8BD2046FFF789FF65640E
:10288000F8BD266B2023012E7CD1C6067AD5D6064C
:1028900078D508684868009048694FF002064006FD
:1028A00040D5E16B086840680004000CE8D0A28DB8
:1028B0008242E5D9E085886920282DD020680C3037
:1028C00050E8001F21F4807140E80012002AF5D181
:1028D0002068143050E8001F21F0010140E8001288
:1028E000002AF5D12068143050E8001F21F0400183
:1028F00040E80012002AF5D184F8423025632068B0
:102900000C3050E8001F21F0100140E80012002AAE
:10291000F5D1E06BFEF76AFA6663A08DE18D401A8F
:1029200081B22AE0A08DE18D401A81B2E08D0028AD
:10293000A6D00029A4D022680C3252E8000F20F45F
:10294000907042E80007002FF5D12068143050E85D
:10295000002F22F0010240E80027002FF5D184F873
:102960004230256320680C3050E8002F22F010021E
:1029700040E80023002BF5D166632046FFF707FFF0
:10298000F8BDFFE705062BD5150629D594F84100BB
:102990002128F5D1A068B0F5805F01D12069B0B1E0
:1029A000206A411C2162216800784860E08C401E4A
:1029B0000004000CE084E3D12068C16821F08001AC
:1029C000C1602068C16841F04001C160D8E7206A59
:1029D0000088C0F308004860206A801C2062E5E798
:1029E0004006CDD55006CBD5CA68204622F040021D
:1029F000CA6084F8413000F076F8C1E77F3E0008F5
:102A000070B5040004D094F84100002510B106E030
:102A1000012070BD84F84050204600F023F82420A7
:102A200084F841002068C16821F40051C16020464B
:102A300001F0B6FA2068016921F490410161206833
:102A4000416921F02A0141612068C16841F40051C7
:102A5000C1606564202084F8410084F84200656309
:102A6000002070BD30B585B000240094019402941C
:102A700003940068184988422CD11848816941F4B0
:102A800080418161816901F480410491816941F053
:102A9000040181618069124D00F0040004904FF43C
:102AA00000700090022001900320039069462846A0
:102AB000FEF724FA2815CDE9000469462846029459
:102AC000FEF71CFA002205212520FEF7FFFE252037
:102AD000FEF7EEFE05B030BD0038014000100240A8
:102AE0000008014070477047FEE701684A69D24319
:102AF00052050FD46FF480624A61002140F8301F04
:102B0000202242738173026942F004020261017360
:102B10000120704700207047F8B50446C06A1E4681
:102B20000D461746082807D0012805D010F5803F2C
:102B300002D0206B122804D12068016841F4807112
:102B40000160134600224FF001112046009600F06C
:102B50002FF940B120680068C00502D54FF400701D
:102B600020640320F8BD2069B0F5804F0ED0062008
:102B7000216800EAD51040F0F000086133463A467B
:102B80000B49204600F05CF978B902E005F0FE0040
:102B900000E0E8B221680861054933463A46891FDA
:102BA000204600F04DF90028DCD00120F8BD0000DF
:102BB000080001002DE9F84F0446006889460B9D86
:102BC00001689846174641F48061016020680168F9
:102BD00041F48071016000954FF0011B00225946BD
:102BE00020460A9B00F0E4F84FF4007A40B12068D8
:102BF0000068C00501D5C4F840A00320BDE8F88FE7
:102C0000216809F0FE0008612B46284920460A9AEF
:102C100000F016F9F0BB20684169806900902A46EF
:102C200020460A9900F0A2F940B1206C04283AD15C
:102C30002068016841F40071016034E0FEB2B8F12F
:102C4000010F09D02168380A08612A4620460A99EE
:102C500000F08CF90028E8D1206806612A46204659
:102C60000A9900F083F90028DFD12068016841F457
:102C70008071016000950022594620460A9B00F0B1
:102C800097F80028B3D1216809F0FF0040F0010057
:102C9000086100E007E02B46044920460A9A00F04C
:102CA000CFF80028AAD00120A8E700000200010008
:102CB0002DE9F843044600680D46DDE908970168F0
:102CC0009846164641F4807101604B4600224FF051
:102CD00001112046009700F06BF848B120680068A9
:102CE000C00502D54FF4007020640320BDE8F883CE
:102CF000216805F0FE0008613B464A46154920461A
:102D000000F09EF888B920684169806900903A46D1
:102D10004946204600F02AF948B1206C042804D125
:102D20002068016841F4007101600120DEE7F5B21E
:102D3000B8F1010F09D02168300A08613A464946C6
:102D4000204600F013F90028E7D120680561002033
:102D5000CCE700000200010070B516460D4604469F
:102D60001EE02046FFF7C1FE08B1012070BD681CBF
:102D700016D0FEF7C5F9801BA84200D885B9206897
:102D80004069C04340070BD5002044F8300F202194
:102D90006173A073216941F0200121612073E4E790
:102DA00020684069C0434007DBD4002070BD0000AC
:102DB0002DE9F047984617460D460446C1F30746ED
:102DC000DDF820902AE000BFB8F1FF3F26D0FEF7E3
:102DD00097F9A0EB0901414502D8B8F1000F1DD1C8
:102DE0002068012E16D0806925EA00000004000C3E
:102DF00012D00020B84211D1002044F8300F202119
:102E00006173A073216941F02001216120730120C9
:102E1000BDE8F0874069E7E70120EBE72068012E75
:102E20000AD0806925EA00000004000C06D00020CA
:102E3000B842C9D00020EBE74069F3E70120F7E78B
:102E40002DE9F047984616460D4604464FF0000916
:102E50004FF0200AC1F3074723E020684069C043D0
:102E6000400515D42068016841F4007101602168B3
:102E70006FF480604861C4F8309084F83DA084F815
:102E80003E90216C41F00401216484F83C9021E0E3
:102E9000701C06D0FEF734F9A0EB0800B04203D84E
:102EA00016B1012F1FD021E02068012F15D08069B5
:102EB00025EA00000004000C18D000BF44F8309F41
:102EC00084F80DA084F80E90216941F02001216161
:102ED00084F80C900120BDE8F087406925EA0000E5
:102EE0000004000CEAD12068406901E02068806994
:102EF00025EA00000004000CAFD1ECE72DE9F04119
:102F0000002590460E460446202728E04069C0432D
:102F1000C0060CD454F8301B6FF01000486144F820
:102F200010596777A577206A2062257714E0FEF7AD
:102F3000E7F8A0EB0800B04200D886B920684069E5
:102F4000C04340060BD544F8305F6773A573206912
:102F500040F02000206125730120BDE8F081206849
:102F60004169C9434906D1D40020F6E770B5164639
:102F70000D4604461EE02046FFF7B7FD08B10120CC
:102F800070BD681C16D0FEF7BBF8801BA84200D8A5
:102F900085B920684069C04300060BD5002044F87D
:102FA000300F20216173A073216941F0200121615C
:102FB0002073E4E720684069C0430006DBD40020AA
:102FC00070BD00000EB50127154C4FF0FF394FF0D2
:102FD000000802264946A06A03F018FB0500F9D054
:102FE000206A854201D100F00FFDE0698542F1D1F0
:102FF000002202A903F06EFA02985A2801DD019618
:1030000004E001DA019701E0CDF804804FF00003FD
:1030100000961A466946606A03F040F9DAE7000054
:10302000F400002000F062BB00F076BB00F090BB23
:1030300000F0BEBB00F0C6BB00F00EBC10B5002116
:103040006B2000F0F5F800216C2000F0F1F8092168
:10305000192000F0EDF806211A2000F0E9F81821F7
:103060001B2000F0E5F818211C2000F0E1F80020FA
:1030700010BD000010B5049C002C0FD04038FDF7A7
:10308000C7FA6FF00D02FDF79EFA01F089F9044AC4
:10309000044BFDF726FAFDF7E0FA206010BD0000B2
:1030A000A79196CADBA54C402DE9FC5F0E46DDE9F1
:1030B0000CAB07461D46914601A93B2000F07AF86B
:1030C000804669463C2000F075F840EA080437B1B4
:1030D0009DF800009DF8041040EA0120388001A905
:1030E0003D2000F067F840EA040769463E2000F002
:1030F00061F840EA070436B19DF800009DF804101D
:1031000040EA0120308001A93F2000F053F8044339
:103110006946402000F04EF80443B9F1000F07D093
:103120009DF800009DF8041040EA0120A9F8000075
:1031300001A9432000F03EF840EA04066946442015
:1031400000F038F840EA060435B19DF800009DF81B
:10315000041040EA0120288001A9452000F02AF847
:1031600004436946462000F025F80443BAF1000FF5
:1031700007D09DF800009DF8041040EA0120AAF84D
:10318000000001A9472000F015F840EA040569464F
:10319000482000F00FF82843BBF1000F07D09DF83E
:1031A00000109DF8042041EA0221ABF80010BDE8B0
:1031B000FC9F00000EB54FF4FA7201230292CDE994
:1031C000001302460248D0210068FEF7F9F80EBD50
:1031D0009C00002086B0144C0126DFF850800025AA
:1031E00003AF20680028FCD12660002300951A4612
:1031F000194604A80195FFF757FF256080B900958F
:10320000CDE9015700231A461946BDF91000FFF712
:1032100031FF00231A4603A9D8F8040003F03EF852
:10322000322002F069FDDCE7E00000209C00002075
:103230001CB502238DF804004FF4FA700090044886
:103240008DF8051001AAD0210068FEF723F81CBDF7
:103250009C0000207CB5FFF7EDFEFFF7E3FEFDF7D5
:10326000F9FCFFF7EBFE00210FA20846FFF7E4FE92
:10327000104A0021104801F05BFE10490025182477
:1032800008602B4680220EA10F48CDE9004503F0CF
:1032900001FA00234FF400720CA10F48CDE900455C
:1032A00003F0F8F97CBD00005374617274696E67B5
:1032B00000000000807400087D3B0008080000202A
:1032C000536F756E64000000ED3A000847616D654C
:1032D0005461736B00000000E94C00082DE9F047D1
:1032E00086B000244B4800940194029403948169B1
:1032F00041F010018161816901F01001049181693F
:1033000041F020018161816901F02001049181690E
:1033100041F004018161816901F004010491816936
:1033200041F00801816180693B4F00F008004FF4D3
:1033300000550490002229463846FDF7DCFEDFF8F0
:10334000DC90002213214846FDF7D5FEDFF8D0A01F
:103350004FF40248002241465046FDF7CCFE00954E
:10336000022601250396CDE9015469463846FDF74A
:10337000C5FD112700970396CDE9015469464846DB
:10338000FDF7BCFDCDE90256CDE900676946484628
:10339000FDF7B4FD03208DE8310069465046FDF786
:1033A000ADFDA80200901F48CDE9010569465046D1
:1033B000FDF7A4FD1C4F4FF40260CDE900076946FC
:1033C00002955046FDF79AFD2803CDE900076946AE
:1033D00002945046FDF792FD4FF48240CDE900047F
:1033E000694650460294FDF789FDCDF800800396AA
:1033F000CDE9015469465046FDF780FD00220521C4
:103400002820FEF763FA2820FEF752FA06B0BDE83E
:10341000F087000000100240001001400008014049
:10342000000C014000003110000011100D4810B5D3
:103430000B4901600C49416000214FF480428160DA
:10344000C0E9031241618161C1610162FDF75EFE65
:10345000002803D0BDE81040FDF7BABC10BD000045
:103460000054004038010020A086010010B596B03D
:1034700000240F9410941194129413941C2108A802
:103480001494FCF708FF20216846FCF704FF2A4843
:10349000284901604721C0E9011440F2E731C0E941
:1034A00003148021C0E90541FEF726FE08B1FDF7AF
:1034B0008FFC4FF480500F900FA91F48FEF794FE29
:1034C00008B1FDF785FC1C48FFF78DF808B1FDF742
:1034D0007FFC139413A918481494FEF7D9FD08B182
:1034E000FDF776FC6020089040F2F310CDE9090466
:1034F0000B940C940D94002208A90F480E94FFF72A
:103500000CF808B1FDF764FC00944FF40050CDE9CD
:103510000440029401940394694607480794FEF717
:103520008DFD08B1FDF754FC0348FEF77FFF16B090
:1035300010BD0000002C01408C01002010B58EB0A1
:1035400000240794089409940A940B941C2168465B
:103550000C94FCF7A0FE27484FF08041016040F238
:103560006711C0E9011440F2CF71C0E90314802152
:103570008161FEF7C1FD08B1FDF72AFC4FF48050D0
:10358000079007A91B48FEF72FFE08B1FDF720FCA6
:103590001848FFF728F808B1FDF71AFC0B940BA99F
:1035A00014480C94FEF774FD08B1FDF711FC60207F
:1035B000CDE900040294002269460E480494FEF707
:1035C000ACFF08B1FDF704FC042269460948FEF788
:1035D000A4FF08B1FDF7FCFB082269460548FEF789
:1035E0009CFF08B1FDF7F4FB0248FEF71FFF0EB089
:1035F00010BD0000D401002010B58AB0002407944B
:103600001C2168460894FCF746FE184816490160DC
:103610000721C0E9011440F2E731C0E90314802119
:103620008161FEF7E0FF08B1FDF7D2FB079407A91F
:103630000E480894FEF72CFD08B1FDF7C9FB602089
:1036400000904FF46170CDE90104002269460748FB
:103650000494FEF762FF08B1FDF7BAFB0348FEF7DA
:10366000E5FE0AB010BD0000000400401C0200206E
:103670000C4810B50A4901604FF416514160002111
:1036800081600C22C160C0E904128161C161FFF751
:10369000B7F9002803D0BDE81040FDF799BB10BD75
:1036A00000380140640200200B4810B50949016050
:1036B000082141600221816000218161C1610162B4
:1036C000FEF736F9002803D0BDE81040FDF780BBB7
:1036D00010BD0000005C0040AC020020FEE7FDF7DA
:1036E000F7FA322002F008FBF9E7FEE710B5A0B0C8
:1036F000002480216846FCF7CEFD0021204600F022
:10370000FFF88021684600F02FF9641CE4B2082C11
:10371000F3D320B010BD000070B50C4D002400BFE5
:1037200004F1B000C0B200F00BF9002000F008F97D
:10373000102000F005F905EBC410802100F014F909
:10374000641CE4B2082CEBD370BD0000FC310020F7
:103750002DE9F0478146C81701EB5070C0F3C7054B
:1037600020F00700081A1844C01DC11700EB517063
:103770009246C0F3C7070024DFF8308011E02E190D
:10378000082E0CD209F0FF01F0B200F0B9F809EBF5
:10379000C6121FFA8AF102EB080000F0E5F8641C7B
:1037A000E4B2BC42EBD3BDE8F0870000FC3100205E
:1037B00080230360402008600120106000487047AB
:1037C000FC31002010B50224202000F0B9F820467A
:1037D00000F0B6F81F4804703F24A82000F0B0F8AD
:1037E000204600F0ADF80024D32000F0A9F82046D0
:1037F00000F0A6F8402000F0A3F8A12000F0A0F807
:10380000C82000F09DF80021084600F063F87F24EE
:10381000812000F095F8204600F092F8A42000F0F6
:103820008FF8A62000F08CF8D52000F089F88020D1
:1038300000F086F88D2000F083F8142000F080F866
:103840000021012000F046F8BDE81040AF2000F054
:1038500077B80000940000202DE9F04117460E468D
:10386000044600250BE03146204600F00FF8641CAA
:10387000E4B20F2C02D90024B61CF6B26D1C7A5D9E
:10388000002AF0D12846BDE8F081000070B5164648
:10389000C206150E0C46072918D80F2816D8294637
:1038A000204600F02DF80A48082100EB06100646D5
:1038B00000F05AF8641CE0B2294600F021F806F145
:1038C0000800BDE87040082100F04EB870BD00004F
:1038D000CE74000870B50C46050001D0012D0ED144
:1038E0000CB1012C0BD1DA2000F02AF8280100EBF2
:1038F0004410BDE87040801CC0B200F021B870BD1B
:1039000070B50E4D0C462978022905D1072803D839
:10391000B030C0B200F014F8287802280CD17F2C07
:103920000AD804F00F0000F00BF8102000EB141080
:10393000BDE8704000F004B870BD000094000020A5
:103940001CB500218DF804108DF805004FF4FA70B5
:1039500000900448022301AA78214068FDF79AFCF0
:103960001CBD0000940000200EB54FF4FA728DE8E3
:10397000070004480123402278214068FDF748FEF3
:103980000EBD000094000020010004484FF000012B
:10399000006801D0FEF76ABEFEF7B6BEA4000020A4
:1039A00070B58CB01C216846FCF775FC4FF4807034
:1039B0000225CDE90705002407A91048CDE90945EE
:1039C000FDF79CFA0F4E0E484722316815C140F2B0
:1039D000E732E1E80224802261E8044200F034F991
:1039E00060200090049440F2F310CDE9010500221C
:1039F00069463068FEF791FD0CB070BD00080140CB
:103A0000002C0140A40000201CB5114C0022694686
:103A1000206A02F05FFD019904F12C00E0290ED02C
:103A2000902910D019B10099016000214160084926
:103A300000231A462C31606A02F030FC1CBD00994C
:103A400001600221F2E7009901600121EEE7000028
:103A5000F4000020084B10B5D9680A46491CCC1761
:103A600001EB546424F07F04091B9C68A14202D03E
:103A7000024CA054D96010BDC000002000360020C8
:103A80002DE9F04101F0C8FF06460D46022001F085
:103A900005FA134F4FF480513846FDF71FFB0028FD
:103AA00016D0104CD4E90401321A65EB01030E481C
:103AB0000021FCF783FB606001213846FDF70EFB17
:103AC0000028206806D0401CC4F80000C4E9046542
:103AD000BDE8F081401E2060606840426060F5E70C
:103AE000000C0140A800002000CA9A3B1FB5FFF758
:103AF00057FF0125002208210A2002F034FB1A4C4E
:103B0000AE1E6060324602A9606802F0E3FC012844
:103B1000F8D10398C0B201280DD00228F2D1206854
:103B200028B102F00FF900202060FFF72DFF3220AE
:103B300002F0E2F8E6E7206838B18DB102F00EFA43
:103B40000020FFF721FF0025DCE707491920CDE918
:103B500000010023802205A1074802F09BFDD1E768
:103B600002F07AF90125CDE70000002042616441AE
:103B700070706C6500000000DF36000810B54FF46F
:103B800000510448FDF7AFFABDE81040142002F0E0
:103B9000B3B800000010014010B5502080F3118828
:103BA000BFF34F8FBFF36F8F02F0E0FD18B10449F0
:103BB0004FF080500860002080F3118810BD000095
:103BC00004ED00E030B593B028216846FCF763FBB4
:103BD00014210AA8FCF75FFB002401200F94109425
:103BE0001194010412948DE8130004904FF4E01036
:103BF000CDE90810022507956846FEF78DF808B153
:103C000072B6FEE70F20CDE90A054FF48060CDE9DA
:103C10000C4002210AA80E94FDF782FF08B172B68B
:103C2000FEE710200F9012940FA8FDF703FF002865
:103C300001D072B6FEE713B030BD70470148FEF701
:103C400042BB00009C050020F0B50268164B174CE3
:103C5000174D4FF08047984205D0B84203D0A0429C
:103C600001D0A84203D122F070064A68324398423C
:103C700005D0B84203D0A04201D0A84203D122F41B
:103C80004074CA6822434C6922F0800222430260D9
:103C90008A68C2620A688262984201D10969016336
:103CA00001214161F0BD0000002C014000040040F2
:103CB0000008004010B501F01F030121046A99407B
:103CC0008C430462016A9A401143016210BD10B531
:103CD000846842EA032224F47F440A432243826038
:103CE00010BD826822F070020A4342F00701816031
:103CF0007047000030B5036A026A22F001020262D6
:103D00004268846924F073050C682C4323F0020593
:103D10008B682B430A4DA8420BD123F00805CB68D2
:103D200022F440722B434D6923F0040315438A6942
:103D30002A434260846149684163036230BD0000E8
:103D4000002C014030B5026A036A23F010030362BD
:103D5000436884690D6824F4E64444EA05248D68C8
:103D600022F0200242EA05120B4DA8420ED1CD6886
:103D700022F0800242EA05124D6923F4406343EACF
:103D800085038D6922F0400243EA85034360846124
:103D900049688163026230BD002C014030B5036A7E
:103DA000026A22F4807202624268C46923F40073DA
:103DB00024F073050C682C438D6843EA05230C4DF1
:103DC000A8420ED1CD6823F4006343EA05234D6970
:103DD00022F4405242EA05128D6923F4806342EADC
:103DE00005124260C4614968C163036230BD0000CE
:103DF000002C014030B5046A026A22F4805202624B
:103E00004268C3690D6823F4E64343EA05238D68DD
:103E100024F4005444EA0534064DA84204D14D6907
:103E200022F4804242EA85124260C361496801641B
:103E3000046230BD002C014010B5036A046A24F00E
:103E400001040462846924F0F00444EA021423F0BB
:103E50000A020A438461026210BD10B5036A046A53
:103E600024F010040462846923F0A00324F4704455
:103E700044EA023243EA01118261016210BD10B5C9
:103E8000406A0021C185C184FEF782FC10BD016833
:103E90000C3151E8002F22F4907241E80023002BEE
:103EA000F5D10168143151E8002F22F0010241E8F8
:103EB0000023002BF5D1016B012909D101680C31D8
:103EC00051E8002F22F0100241E80023002BF5D129
:103ED000202180F8421000210163704708B590F856
:103EE0004210222901D0022008BD82684FF480537D
:103EF0009A4201D1016921B1816A9A421BD04AB12B
:103F00000AE00268816A5268C2F308020A80816A84
:103F1000891C08E0026972B10268526802F07F02EF
:103F20000A70816A491C8162C18D491E0904090C0D
:103F3000C18503D01BE002685268F1E70168CA68D6
:103F400022F02002CA600168CA6822F48072CA6046
:103F500001684A6922F001024A61202180F842107A
:103F600000214163026B012A03D0FEF7BBFD002054
:103F700008BD016301680C3151E8002F22F01002E6
:103F800041E80023002BF5D101680A68D20602D56A
:103F90000A6849680091818DFEF7F9FBE7E70000A8
:103FA00070B5044600680169E26821F4405111438C
:103FB00001612169A0680843616908432168CA68F2
:103FC00041F20C639A430243CA6020684169A269C6
:103FD00021F44071114341611E492068884202D199
:103FE000FDF764FE01E0FDF751FE00EBC00101EBBF
:103FF0000012606864218000B2FBF0F3B3FBF1F3C0
:104000006FF018067343B2FBF0F5B2FBF0F605EB68
:104010008305322303EB0515B5FBF1F5B6FBF1F68D
:1040200005F0F00505EB0615B2FBF0F6B2FBF0F07B
:10403000B0FBF1F06FF01802504306EB800003EB89
:104040000010B0FBF1F0216800F00F0028448860F8
:1040500070BD000000380140074810B500680168D5
:10406000C943890603D44068C0B2FCF70FFEBDE81F
:1040700010400148FEF78EBB64020020002070470C
:1040800000207047012120F8401F0021018081801D
:1040900001820846704730F8401F21F43F410180FB
:1040A0000020704700207047FEE700000FB4084B67
:1040B00010B504A902AA039800F090F8044602A9DA
:1040C000002000F067F9204610BC5DF814FB0000EA
:1040D000954300080907090E002804DB00F1E020E1
:1040E00080F80014704700F00F0000F1E02080F825
:1040F000141D70472DE9F0414F1E00EBC701044627
:10410000D1E9000115461E4637F006020DD02A46B9
:104110003346FCF7E6F97F1E04EBC703D3E900231F
:10412000FCF738F937F00602F1D1022F25D0042F21
:1041300013D0062F18BFBDE8F0812A463346FCF79E
:10414000D0F9D4E90A23FCF725F92A463346FCF7CF
:10415000C8F9D4E90823FCF71DF92A463346FCF7D1
:10416000C0F9D4E90623FCF715F92A463346FCF7D3
:10417000B8F9D4E90423FCF70DF92A463346FCF7D5
:10418000B0F9D4E90223FCF705F92A463346FCF7D7
:10419000A8F9D4E90023BDE8F041FCF7FBB80122FF
:1041A000FCF711BA0022134610461146FCF76DBB0E
:1041B00002E008C8121F08C1002AFAD170477047F0
:1041C000002001E001C1121F002AFBD1704700004E
:1041D0000149086070470000340100202DE9FF4FBD
:1041E0008BB09A460F460546002606E025280BD0E0
:1041F00052460D9990476D1C761C28780028F5D101
:104200000FB03046BDE8F08F0024A046012260497F
:1042100000E0044315F8013F203B02FA03F0084296
:10422000F7D128782E2817D115F8010F44F004048F
:104230002A280ED06FF02F022878A0F1300109292A
:104240000AD808EB880102EB410100EB01086D1C64
:10425000F2E757F8048B6D1C287869283ED006DCFD
:104260000028CDD063280BD0642804D136E0732811
:1042700010D075284BD052460D999047761C85E09A
:1042800017F8040B8DF8000000208DF80100E946B6
:10429000012003E057F8049B4FF0FF3061074FF017
:1042A000000401D40AE0641C44450DDA8442FADBC0
:1042B00019F804100029F6D106E0641C8442FCDBE6
:1042C00019F804100029F8D1264404E019F8010B6C
:1042D00052460D999047641EF8D257E001CF4FF037
:1042E0000A0B002802DA40422D2102E0210504D504
:1042F0002B218DF82410012103E0E10705D02021B6
:10430000F7E70DF1200908910CE00021F9E701CF52
:104310004FF00A0BF9E75946FCF7ECF901F13002CE
:1043200009F8012D0028F6D1ADEB090000F1200BB2
:10433000600701D44FF00108D84502DDA8EB0B005F
:1043400000E000208046002406E009A85246005DF7
:104350000D999047641C761C08988442F5DB04E0B4
:10436000302052460D999047761CB8F10001A8F113
:104370000108F5DC05E019F8010B52460D9990474C
:10438000761CBBF10001ABF1010BF4DC6D1C34E7D2
:10439000092801000A68531C0B6010707047000068
:1043A0002DE9F04D0546DFF8388221F000408D4FB1
:1043B00082B00C46404520DBA0EB080129430BD01E
:1043C0008949884201DC10D17DB102B028462146DE
:1043D000BDE8F04DFFF7E3BE002CC7BF002001464B
:1043E0008248394602B0BDE8F08D0120FFF7F0FEAB
:1043F00002B0BDE8F04DFFF7D5BE7D49884244DAF2
:104400007C498142A1BF79487B4902B0BDE8F08D6B
:104410002A46234610461946FCF763F883460246AF
:1044200076480E460B4606217844FFF763FE5A464F
:104430003346FCF756F8074671488A465A463346D3
:1044400004217844FFF756FE5A463346FCF749F8F4
:1044500000224346FBF79EFF02460B463846514674
:10446000FCF713FA2A462346FCF73BF8654A664BED
:10447000FCF734F82A462346FCF730F802B05B4AD2
:10448000BDE8F04D5C4BFCF729B8002C4FF0000262
:104490004BDA4646434628462146FBF77BFF4FF062
:1044A000FF32FCF790F80446024658480D460B468A
:1044B00006217844FFF71EFE22462B46FCF711F832
:1044C000804653488A4622462B4604217844FFF70B
:1044D00011FE22462B46FCF704F800223346FBF778
:1044E00059FF06468B462046294601F06EFA0446DF
:1044F0000D4632465B4640465146FCF7C6F9224619
:104500002B46FBF7EEFF3F4A3F4BFBF7E4FF22460B
:104510002B46FBF73FFF0122FCF755F802B03B4664
:10452000BDE8F04D314AFBF7D9BF2D4B2846214657
:10453000FBF7D4FF4FF0FF32FCF745F805460E4677
:1045400001F043FA00270C4680463A460B46FBF73B
:1045500021FF82468B463A46234610461946FBF712
:10456000C0FF2A463346FBF7B9FF52465B46FCF7CD
:104570008CF9824627488B462A46334606217844E2
:10458000FFF7B8FD2A463346FBF7ABFFCDE9000144
:1045900021482A46334604217844FFF7ABFD2A46DA
:1045A0003346FBF79EFF00220D4BFBF7F3FE02465E
:1045B0000B46DDE90001FCF768F942462346FBF7AC
:1045C00090FF52465B46FBF7E5FE3A462346FBF773
:1045D000E1FE02B00122BDE8F04DFBF7F4BF0000A0
:1045E0000000F03FFB2109400000F07F182D4454EB
:1045F0000000E03F0000603CFB21F93FAC3A0000C6
:10460000C23A0000075C143326A6913C223A00000F
:10461000383A0000563900006C3900002DE9FF4F90
:1046200093B01F4622991498DDF88080401AC0B2DA
:104630000C9008F10700C00809900C98002600F0C3
:1046400007000B9014984044C0B20590C4E00C9849
:1046500000EBC60000F0FF0A0AF10800C0B20A90A1
:104660002298A8B114990A98884256D35E49C9681D
:10467000884252D805998A45FBD8FF20119014989A
:10468000824508D2A0EB0A01FF208840C0B200E0BA
:10469000FF20119007E005990A98884203D9411A32
:1046A000FF20C840F5E750484FEADA0281684A43E4
:1046B0000792159A06FB072206920B9A72BBC368F3
:1046C00081469A452AD24FF0080AB8F1080F00D265
:1046D000C24600241BE013982044C5B2D9F8080054
:1046E000854212D206982199204401F051F911997E
:1046F00053460140079800220544D9F80400405D64
:1047000001F058F9D9F804104855641CE4B2BC42D1
:10471000E1D3A8EB0A0000F0FF085BE00A9A4446E8
:10472000D2084A430025109251E00B984446C0F14C
:10473000080081460F90A04200D9C1461398284432
:1047400000F0FF0B2848806883453ED206982199E7
:10475000284401F01DF91199084023490390C968C4
:104760008A4511D2079920485944129140684B4616
:104770000B9A405C039901F01DF91B4A129952688B
:104780005054A4EB0900C4B2FCB117480A99C2689E
:1047900091421AD2C9F1080101F0FF09A14500D9DF
:1047A000A1460F9A03991048D140109A406893444B
:1047B0004B4610F80B00002201F0FCF80A4949684A
:1047C00001F80B00A4EB0900C4B26D1CEDB2BD42B0
:1047D000ABD3A046761CF6B209988642FFF437AFF9
:1047E00017B0BDE8F08F0000E0000020FEF71CBC11
:1047F00070B5054C2568002DFCD101252560FEF71C
:1048000015FC0020206070BDE0000020044A10B5B7
:10481000111F081FFEF70CFC01491039486010BD3C
:10482000F00000202DE9FE4F9B4691460F460646BC
:104830000025DFF8988043E0C5EBC50202EB0901D3
:10484000CCB2082200210092CDE901712038C0B21B
:104850001F4900EB80004218052359462046FFF708
:10486000DDFE0823052259462046FFF7C1FF27B386
:1048700084B1A4F1010A0AF0FF01FF235A46D8F8D7
:10488000040001F08BF80AF0FF00082301225946CA
:10489000FFF7AEFFD8F80810491F8C420DD2641DF7
:1048A000E1B2FF235A46D8F8040001F077F8E0B2ED
:1048B000082301225946FFF79BFF6D1CEDB2761CC1
:1048C00030780028B8D1BDE8FE8F0000E00000205D
:1048D000F27C00082DE9F0411D4616468846044644
:1048E000FBF7E4FCC0B2401C00F0A2FA07462146E8
:1048F000FBF7E3FC2B46324641463846FFF792FF72
:104900003846BDE8F04100F001B8000010B50028BD
:1049100021D0114B0022001F196803E0814203D807
:104920000A4649680029F9D152B11368841A9C4299
:1049300004D1006818441060104602E0506000E0A6
:10494000186039B102680B1A934203D10B681A44FC
:1049500002604968416010BD2C0100202DE9F04F34
:10496000D6488FB0C188A0292BD28178FF2928D0C2
:104970000021D34C81468A466068FBF75AFEC5B2D7
:104980002068FBF756FE4FF0000B0221CDE9001B1B
:104990000B46C0B2CB4A2946CDF808B0FFF73EFE21
:1049A0006068FBF746FEC5B22068FBF742FEC0B266
:1049B000082302222946FFF71BFFBAF1000F02D09D
:1049C0000BE00121D5E7A1682068FBF77FFC2060A0
:1049D000E1686068FBF77AFC606000200290216863
:1049E0000391A0466068FBF724FE0027C5B23E464F
:1049F0005FF00004D9F80800C05DD0BBB00005909E
:104A0000FBF701FE0399FBF761FE32D8042000EBAF
:104A10008600FBF7F8FD0399FBF762FE29D2082018
:104A200000EB84010E91A94223D80C2101EB8401F3
:104A3000A9421ED9D9F8081001220323CA55CDE98D
:104A4000000B0E98CDF808B0C1B205989D4AC0B2CF
:104A5000FFF7E4FD0E980823C1B205980322C0B207
:104A6000FFF7C6FE01200290B9F80600401CA9F825
:104A700006007F1C641CE4B2FFB2052CBAD3761C7E
:104A8000F6B2202EB4D3D9F80C004C46801EFBF7AA
:104A9000BAFD0399FBF71AFE13D28B49039888429B
:104AA00003DD4146C8F800B006E0E068801EFBF771
:104AB000AAFD4146C8F80000896881F00041C8F8A5
:104AC0000810039810F1FF4F07D3C8F800B0D8F8CA
:104AD000081081F00041C8F808100027BAF1000F53
:104AE00032D12069801F85422ED3F02D2CD226464C
:104AF0002079FBF788FD0399FBF7E8FD24D830798E
:104B00000C30FBF780FD0399FBF7EAFD1CD83069F8
:104B10000127801FFBF777FDC8F80400D8F80C00C8
:104B20004646B0F5000F02DB80F00040F060FBF776
:104B300087FBFBF75FFD6FF01D01FBF71FFC4FF0DC
:104B40007E51FBF715FCB0605AEA07001AD12069C4
:104B5000811E8D4201D80299A1B1F02D02D9C8F869
:104B600004B009E0029939B9401EFBF74CFDC8F8C2
:104B70000400A078401EA070D8F80C1081F000410D
:104B8000C8F80C104546D8F80400FBF752FDC6B231
:104B90002868FBF74EFD0221CDE9001B494A0B4670
:104BA000C0B2113A3146CDF808B0FFF737FD68685A
:104BB000FBF73FFDC6B22868FBF73BFDC0B20823F8
:104BC00002223146FFF714FE207858B3002784F8FC
:104BD00000B03E460025A068C05DC8B90820CDE9F8
:104BE000000B00EB8509374A4FEA860809F0FF0100
:104BF00008F0FF0003230F3ACDF808B0FFF70EFDD1
:104C000009F0FF0108F0FF0008230322FFF7F0FD81
:104C10007F1C6D1CEDB2FFB2052DDCD3761CF6B205
:104C2000202ED7D3E28829A109A8FFF73FFA002355
:104C30001A46194609A8FFF7F5FDA078FF2827D0E6
:104C4000002522E0A0784FF00801CDE9001B854245
:104C5000CDF808B0207B4FF0070300EBC500A0F1B2
:104C60001800C0B201D21A4A00E0164A0121FFF72B
:104C7000D5FC207B082300EBC5001838C0B2072202
:104C80000121FFF7B5FD6D1CEDB2E0788542D9D367
:104C9000E088A02805D32023322200210DA0FFF7B1
:104CA00019FEA078FF2805D12023222200210BA085
:104CB000FFF710FE0FB0BDE8F08F0000F4000020F9
:104CC000A0380020DF7C000800007043257500003C
:104CD000EB7C000857494E210000000047414D453C
:104CE0004F564552210000001CB5344A111F081FC1
:104CF000FEF79EF9314C143CA061FFF787FDFFF7EA
:104D000075FD002208210A2001F02DFA60621420AE
:104D100001F025FAA062FCF75DF82062FCF760F86C
:104D2000E061A16A206A01F009FAA16AE06901F074
:104D300005FA00251827CDE900754FF400762B46BB
:104D400032461FA1214801F0A5FCCDE900750023E2
:104D500032461FA1214801F09DFC6570E0684008C3
:104D6000FBF751FC1E4E306020690A38FBF74BFC04
:104D700070604FF03F40B0601A48F060A02000F033
:104D800089FDA021A060FBF786FA0320E070A070E7
:104D9000E580A089FA2101EB50002071CDE9007572
:104DA00000234FF4806210A1134801F073FC00BF90
:104DB000FFF7D4FD322000F09FFFF9E70801002043
:104DC0004D5055363035305461736B00D531000885
:104DD000496E7075745461736B000000C52F000834
:104DE000A03800209A9919BF706C6174666F726D5B
:104DF0005F7461736B000000D54F0008FCF7D6FCB0
:104E0000FEF7E0FEFEF76AFAFEF710FBFEF74CFC39
:104E1000FEF72CFBFEF792FBFEF7EEFBFEF728FCFD
:104E200000F04AF8FEF716FA00F062F8FEE700001C
:104E3000F0B50B30154D20F007010024144A0FE0A7
:104E400003688B420BD38B4205D95E1A431847681F
:104E5000C3E9006700E04368136002C004E0021D7C
:104E600010680028ECD12046002802D1286808B13B
:104E70000020F0BD064A07481060074A121A22F0C7
:104E80000702C0E9002401202860D7E73001002094
:104E90002C010020B4380020B03A002070B505463F
:104EA00000244FF47A7603E0304600F0D7FD641C0E
:104EB000AC42F9DB70BD0000EFF3058058B9EFF3A9
:104EC000108040B909490868022801D030B109E0D2
:104ED000EFF3118030B16FF00500704701200860DA
:104EE000002070474FF0FF30704700006C0000203A
:104EF00010B5EFF3058060B9EFF3108048B90B49A6
:104F00000868022802D0012806D00BE0EFF31180D8
:104F100040B16FF0050010BD0220086000F0DAFF1C
:104F2000002010BD4FF0FF3010BD00006C000020CD
:104F3000F0B585B04FEA01034FF00004EFF30581AF
:104F40000394A1BBEFF3108189BB214909680229B1
:104F500002D1EFF3118151BB48B3802618218DF89F
:104F6000104004AD42B3176807B13D4697691FB1C1
:104F700039467F1E382F02D21779FF0702D0002052
:104F800005B0F0BD576907B1BE08D2F808C0BCF142
:104F9000000F0DD0D4685C2C18D312693AB137B128
:104FA0008DE806103246294601F0A1FB03900DE082
:104FB000D7685FB912694AB903AACDE90012B2B243
:104FC000294601F067FB012800D003940398D7E736
:104FD0006C000020304C86B0002625790827CDE9EA
:104FE00000760296207C0C230838C1B22B4A284652
:104FF000FFF714FB207C08230838C1B20C22284696
:10500000FFF7F6FB4FF0FF38424603A9606A01F054
:1050100061FA04986070CDE900760296207C1F4A00
:105020000838C1B20C230C322846FFF7F7FA207C6F
:1050300008230838C1B20C222846FFF7D9FB607854
:10504000012802D0022802D003E0ED1C00E0ED1E92
:10505000EDB26670FA2D01D9002504E0E0680C3845
:10506000854200D9C5B2CDE900760296207C0C239A
:105070000838C1B2094A2846FFF7D0FA207C082335
:105080000838C1B20C222846FFF7B2FB2571322046
:1050900000F032FEB8E70000F4000020D37C0008E6
:1050A0002DE9F041134C0F46054666692068001D46
:1050B00000F0F0FC681C07D137B12168BDE8F04171
:1050C0000D48091D00F037BD20683544B5424560E4
:1050D000216805D2A068BDE8F041091D00F013BDAC
:1050E0006068091D00F00FFD206B854200D225632A
:1050F000BDE8F0811C000020D40A00202DE9F04119
:10510000054600F025FD2D4C2069401C20612068DB
:105110002B4F10B1E06930B32BE0256020690128E6
:1051200027D1002606EB860007EB800000F0DDFCAF
:10513000761C382EF6D3234800F0D7FC21481430D3
:1051400000F0D3FC1F48283000F0CFFC1D483C3055
:1051500000F0CBFC1B48503000F0C7FC19486060E1
:105160001430A06005E02068E96AC06A884200D86F
:105170002560E06A401CE0626864E86AA1698842D0
:1051800000D9A06100EB800007EB8000291D00F032
:10519000D2FC00F0FDFCE06900280CD02068E96A30
:1051A000C06A884207D208494FF080500860BFF3B8
:1051B0004F8FBFF36F8FBDE8F08100001C0000200F
:1051C00024060020840A002004ED00E038B500F039
:1051D000BFFC104CA068C8B90F4800F086FC0E4810
:1051E000143000F082FC0C482060143060600A4BE0
:1051F00000202833009003F1540210210A2000F00F
:10520000D6FFA06010B105A100F040FDBDE8384018
:1052100000F0BEBC58000020E80A0020546D725116
:105220000000000030B4026C0B46002A0BD0C168AD
:105230001144C1604468A14201D30168C16030BC1F
:105240001846FBF70FB830BC70472DE9F041856B6D
:10525000174604460026026C82B1C7B1E068FBF72E
:1052600001F8E168206C091AE1602268914202D2DB
:105270006168081AE060022F16D017E02068A8B90C
:10528000606801F0D7FA0646002060600EE0A06872
:10529000FAF7E8FF216CA0680844A06061688842C2
:1052A00004D32068A06001E005B16D1E6D1CA563EC
:1052B0003046BDE8F08110B5044690F8590058B169
:1052C00001280CD002280FD0502080F31188BFF3A2
:1052D0004F8FBFF36F8FFEE7206B00F06DFC204611
:1052E000BDE8104000F068BC10BD000010484FF44D
:1052F000FA51420706D0C01D0D4920F00700411A9F
:10530000C1F5FA510B4A00230144C2E900030839F0
:10531000103A21F0070111604B600B600B1AC0E9D5
:10532000001393604FF000405360D060704700005E
:10533000BC12002080000020144E154CA6F29C47A1
:105340004FF08058DFF84C9012E000BF00F000FCF6
:10535000F068C568281D00F09DFB2069401E206193
:10536000E068401EE06000F013FC2846FFF7A3FF52
:10537000E0680028EAD138680128F9D9C9F8008026
:10538000BFF34F8FBFF36F8FF2E70000C00A00201A
:105390001C00002004ED00E070B51D46049C61B1C6
:1053A000C4F80020C4E90F010121204600F032FFBB
:1053B00084F850500020A06470BD2460F2E72DE90D
:1053C000F0470E46DDE9098417468246910099466A
:1053D000089DA522206BFAF757FF6FF00301206BA1
:1053E00001EB8701084420F00707780707D0502019
:1053F00080F31188BFF34F8FBFF36F8FFEE7221842
:10540000315C82F83410315C11B1401C1028F6D3A5
:10541000002684F84360382D00D33725E562C4E9BF
:105420001356201D00F06CFB04F1180000F068FB1F
:105430002461C5F138006462A061666584F8586033
:105440004A465146384600F091FA2060B8F1000F04
:1054500001D0C8F80040BDE8F087000030B5114920
:1054600000E011460A688242FBD34B685C18844214
:1054700003D1406818444860084643681C189442A9
:1054800009D1084C103C2468A24209D052681A4441
:1054900042600A6812680260814200D0086030BD34
:1054A0000460F9E78000002070B5002441600B4DD6
:1054B0000061914206D8D11A8269914206D2011D3B
:1054C000686807E09A4203D2994201D3012403E0BD
:1054D000011D286800F017FB204670BD5800002011
:1054E00010B5044600F034FBA06B28B15FF0000457
:1054F00000F04EFB204610BD0124F9E773B50026ED
:105500000098846C5CB1A26BE06B82420FD3502098
:1055100080F31188BFF34F8FBFF36F8FFEE75020EA
:1055200080F31188BFF34F8FBFF36F8FFEE7A26B3D
:1055300082420CD294F945500A4669462046FFF74C
:1055400084FE0646681C04D06D1C84F84550304625
:105550007CBD606A0028FAD004F1240001F0AAF9A9
:105560000028F4D00126F2E730B589B0304D55E07F
:105570000498002806DADDE90601059A90470498A8
:1055800000284BDB069C606910B1201D00F082FAF8
:1055900002A800F0B9F8024604980A283ED2DFE8D3
:1055A00000F00505053D263705053D260598A1694E
:1055B000034601442046FFF777FF00B3616A2046A7
:1055C0008847E069012829D1002000900598A16949
:1055D000002342181946204601F036FA78B95020C7
:1055E00080F31188BFF34F8FBFF36F8FFEE70598ED
:1055F000A06128B1811813462046FFF755FF0DE042
:10560000502080F31188BFF34F8FBFF36F8FFEE7F9
:1056100094F82C0010B9204600F0CEFA002204A91C
:10562000A86800F057FF0028A2D109B030BD0000E3
:10563000580000202DE9FC410F46054600F0DCFC37
:1056400001A800F061F80446019818B101F06AF968
:10565000BDE8FC81224EAFB170680068A8B3002796
:10566000291B3A46B06800F025FB01F05BF90028E1
:10567000EED11C494FF080500860BFF34F8FBFF34D
:105680006F8FE5E7A542EBD801F04CF9306827466B
:10569000C068C468201D00F0FDF9E069012810D140
:1056A000A0692B4641193A462046FFF7FDFE40B15E
:1056B00000200346014600902A46204601F0C4F926
:1056C00020B1616A20468847C2E707E0502080F396
:1056D0001188BFF34F8FBFF36F8FFEE70127BFE73E
:1056E0005800002004ED00E006484168096829B12F
:1056F0004168C968C9684968016370474FF0FF3164
:10570000FAE700001C00002070B5054601F028F8FB
:10571000064E04463069844203D200F009F80120A5
:1057200000E0002028602046346170BD5800002051
:10573000F8B5194D1FE0C068C4680668201D00F068
:10574000A9F9616A20468847E069012813D1A06958
:105750003044B04206D924616060211D286800F001
:10576000D2F908E000200346014600903246204668
:1057700001F06AF938B1286801680029DBD169684D
:10578000C5E90010F8BD502080F31188BFF34F8F9A
:10579000BFF36F8FFEE70000580000200848406804
:1057A000401C4FF0500080F3118804D0BFF34F8F9E
:1057B000BFF36F8FFEE7BFF34F8FBFF36F8FFEE72F
:1057C00088000020002150B10A4B42699A420FD153
:1057D000806AA3F1280290420AD040B108E050202C
:1057E00080F31188BFF34F8FBFF36F8FFEE7012166
:1057F00008467047D40A0020074C2068016841B170
:10580000C0680021D0F80000FFF714FFFFF7ACFEDE
:10581000F3E701210020F7E7580000202DE9F041CF
:10582000044600F095F994F9455004F1240610E07F
:10583000A06C20B100212046FFF760FE04E0606A02
:1058400048B1304601F036F808B100F0CBFA6D1ED1
:105850006DB2002DECDC4FF0FF3684F8456000F0AF
:1058600097F900F075F994F9445004F1100709E034
:10587000206948B1384601F01DF808B100F0B2FACD
:105880006D1E6DB2002DF3DC84F84460BDE8F0417C
:1058900000F07EB92DE9F0410546002700F0ACFB91
:1058A000314E306808B9FFF721FDF06805424BD151
:1058B000C5B3083568070ED005F00700C0F1080031
:1058C0000544680707D0502080F31188BFF34F8F3D
:1058D000BFF36F8FFEE72DB37068854234D822483E
:1058E000103001460C6801E020460C466168A94270
:1058F00002D221680029F7D131688C4224D0076890
:105900002168016060680837411B10290FD96019B0
:10591000420708D0502080F31188BFF34F8FBFF3A8
:105920006F8FFEE710E041606560FFF797FD6168EB
:105930007068401A7060B268904200D2B060F0683F
:1059400001430020C4E9000100F0ECFF780707D014
:10595000502080F31188BFF34F8FBFF36F8FFEE7A6
:105960003846BDE8F08100007000002010B5031F2C
:105970004FF080741C601B1F21F001011960191F7A
:10598000024B0B60143940380A6010BD9D57000867
:105990000078002901D0C043C0B2704710B5044C54
:1059A000D208A46802FB0411425C1A43425410BDA1
:1059B000E000002010B501249C40641E214094406A
:1059C000A04391400143C8B210BD2DE9F041064605
:1059D0000F46FAF7DBFF041E0D4618BF01202843CF
:1059E00020F00040C0F17F6000F1E040C00F0ED019
:1059F000301C18BF0120384320F00040C0F17F6008
:105A000000F1E040C00F04BF0120FEF7E1FB20469B
:105A10002946BDE8F08100002DE9F0410D4CFBF76F
:105A20006FFB22680023516AD26A0B4DA0FB054729
:105A300003FB057500FB0355074FA1FB070C03FB98
:105A400007C701FB0371FAF7B9FB00196941BDE80B
:105A5000F08100009C05002040420F0030B50C4A48
:105A600000211368DC6A4FF47A726043B0FBF2F5F0
:105A70005A6A586A9042FCD002D9A0EB020202E0B6
:105A8000A4EB0202024411440246A942F1D330BD04
:105A90009C050020D0E9013201699A60D0E9012318
:105AA0005A604A68824201D182684A6000220261DB
:105AB0000868401E0860086870470000034B0360D8
:105AC00003F15C000860802010607047040C002027
:105AD000044B036003F15C0008604FF480701060B9
